:020000040800F2
:10000000B0180020B90200089D27000875220008DA
:1000100099270008D71B00082733000800000000BC
:10002000000000000000000000000000ED2A0008B1
:10003000891D00080000000025280008012C000888
:10004000D3020008D3020008D3020008D30200083C
:10005000D3020008D30200088D1D0008D302000857
:10006000D3020008D3020008D3020008D30200081C
:10007000D3020008D3020008D3020008D30200080C
:10008000D3020008D3020008D3020008D3020008FC
:10009000D3020008D3020008D3020008D3020008EC
:1000A000D3020008D3020008D3020008D3020008DC
:1000B000652C0008D30200089D2C0008D30200081C
:1000C000D3020008D3020008D3020008D3020008BC
:1000D000D30200080D2F0008952F0008D302000856
:1000E000D3020008D3020008D3020008D30200089C
:1000F000D3020008D3020008D3020008D30200088C
:10010000D3020008D3020008D3020008D30200087B
:10011000D3020008D3020008D3020008D30200086B
:10012000D3020008D3020008D3020008D30200085B
:1001300000F002F800F0B0F80AA090E8000C824449
:100140008344AAF10107DA4501D100F0A5F8AFF226
:10015000090EBAE80F0013F0010F18BFFB1A43F0A5
:10016000010318471C5500003C5500000A444FF09D
:10017000000C10F8013B13F0070408BF10F8014B06
:100180001D1108BF10F8015B641E05D010F8016B4B
:10019000641E01F8016BF9D113F0080F1EBF10F8AF
:1001A000014BAD1C0C1B09D16D1E58BF01F801CBD2
:1001B000FAD505E014F8016B01F8016B6D1EF9D555
:1001C0009142D6D37047000000230024002500266A
:1001D000103A28BF78C1FBD8520728BF30C148BFAA
:1001E0000B6070476E2900F02083702900F06D814C
:1001F000662904F0D585652904F0D285672904F0C5
:10020000CF85612904F0CE8503681B0A28BF41F021
:100210008001692900F0E080642900F0DD80752903
:1002200000F0DA806F2900F01784782900F0398116
:10023000E92900F0B383E42900F0B083F52900F048
:10024000AD83EF2900F01484F82900F038810368A9
:10025000DB0928BF41F08001632900F02283732964
:1002600000F02783E32900F0E387F32900F0E88713
:10027000002070471FB501F03DF804000020002168
:1002800004F078FD401C60600020002104F05CFD5B
:10029000E0601FBD10B510BD00F0FEFF1146FFF776
:1002A000E9FF03F0DDF901F0D5F803B4FFF7F2FF41
:1002B00003BC03F055F8000009488047094800478F
:1002C000FEE7FEE7FEE7FEE7FEE7FEE7FEE7FEE706
:1002D000FEE7FEE704480549054A064B7047000063
:1002E000052C000831010008B0120020B0180020D1
:1002F000B0140020B0140020704700001CB50C465C
:10030000064B7B4469460090204600F0A8FA04465C
:100310000020694600F0B6FA20461CBD7F050000AB
:100320000FB4044910B503AA029800F0C7FA10BC34
:100330005DF814FB1800002070B50446856900685C
:10034000C10601D5302600E02026C00707D070BDC9
:10035000D4E9012130469047206A401C20626D1E7E
:10036000F6D570BD70B5044685690078C00707D121
:1003700070BDD4E9012120209047206A401C2062F2
:100380006D1EF6D570BD70B50C460546012A05D028
:100390002878800600D5EA69002302E0012305E001
:1003A0005B1C934202D2E05C0028F9D1A869E618F0
:1003B000C01AA861286A184428622846FFF7BCFFC3
:1003C00004E0D5E9012114F8010B9047B442F8D3B9
:1003D0002846FFF7C7FF70BD2DE9F041064600240F
:1003E00010687529314615A510D000F0B3F9002822
:1003F00002DA404212A507E031688A0701D511A54B
:1004000002E0490704D510A5012401E000F0ABF992
:1004100000210A2306F1240707E0B0FBF3F203FBF7
:100420001200303078541046491C0028F5D123467C
:100430002A463046BDE8F04100F09EB900000000B9
:100440002D0000002B00000020000000F0B40D463D
:100450000188090502D5214C7C4402E01F4C7C44F4
:100460000E34002100F1240608E002F00F07120903
:10047000E75D42EA03721B097754491C52EA0307FD
:10048000F3D102780023120704D5702D06D009B1EC
:10049000022311342246F0BC00F06EB9012310345F
:1004A000F8E770B504460D462146106800F05BF988
:1004B000024629462046BDE870400023C6E7D21D0B
:1004C00022F00703D3E90023C0E70368126843F072
:1004D000200303600823C3610023B7E75C4F0000DB
:1004E0002DE9F05F894604464FF0000ADFF874B149
:1004F000FB44C0F820A02046E1688847002874D05B
:10050000252806D0D4E901219047206A401C2062AA
:10051000F1E700265F462046E16888472028054627
:1005200007DB312D05D2781910F8200C08B10643ED
:10053000F1E7B00701D526F00406C4F81CA0002797
:10054000C4F818A02A2D09D0284602F002FF38B3BB
:1005500004EB8708303DC8F8185019E059F8041B1F
:10056000204604EB87029161E1688847012F054628
:1005700018D1E069002820DA26F020061DE0D8F81E
:10058000180000EB800005EB40003038C8F8180078
:100590002046E1688847054602F0DBFE0028EED1E0
:1005A000012F0AD02E2D08D12046E16888477F1CF4
:1005B0000546022F46F02006C4DBA069002803DAB6
:1005C000404246F00106A061F00701D026F0100677
:1005D0006C2D0BD0682D09D04C2D39D06A2D35D01B
:1005E000742D35D07A2D33D016E038E0E1682F46EF
:1005F00020468847B842054609D16C2F26D04FF4D3
:100600008060E168064320468847054604E06C2F79
:100610001AD04FF4807006430DB3A5F1410019289C
:1006200002D8203546F400664A4629462046266010
:100630004E46FFF7D7FD80B101280BD0F61D26F0FE
:10064000070000F1080956E74020E4E78020D8E7DA
:100650000020D6E706F104094DE7284652E7206A54
:10066000BDE8F09FEC4E000030B505460B462A462B
:1006700013F8014B12F8010B08B1A042F8D01CB1DD
:10068000002802D06D1CF1E7284630BD10B5431C90
:1006900002E010F8011B71B18107FAD14FF001326D
:1006A00002C88C1A8C4314EAC211F9D0C01A0A0687
:1006B00003D0C01E10BDC01A10BD0A0401D0801E98
:1006C00010BD0902FCD0401E10BD00004FF0013CDF
:1006D00050F8042B51F8043B9A4221D1A2EB0C03B1
:1006E000934313EACC1317D150F8042B51F8043B71
:1006F0009A4215D1A2EB0C03934313EACC130BD10E
:1007000050F8042B51F8043B9A4209D1A2EB0C0398
:10071000934313EACC13DBD04FF00000704700BFC7
:10072000D01A01BAB1FA81F101F0180122FA01F0F0
:10073000CB40C1F12001DBB2C0B2C01A2CFA01F3E8
:10074000D11A914311EAC311E6D17047704770473F
:100750007047704709684A0501D540B27047C9051E
:10076000FCD500B2704709684A0501D5C0B2704790
:10077000C905FCD580B270472DE9F0470D46994672
:100780009246044600F124080168880604D5E06911
:1007900021F01001216000E00120A84201DD471B8B
:1007A00000E00027A1697A1902EB0900081AA0618C
:1007B0002078C00602D42046FFF7BEFD002608E0E0
:1007C000D4E901211AF806009047206A401C761CE3
:1007D00020624E45F4DB2078C0060AD52046FFF79C
:1007E000ABFD06E0D4E9012130209047206A401C8F
:1007F0002062381EA7F10107F4DC07E0D4E90121EB
:1008000018F805009047206A401C2062281EA5F1B8
:100810000105F3DC2046FFF7A5FD2078000602D590
:100820000220BDE8F0870120FBE711680268006A3A
:10083000530501D508700AE0D30501D5088006E00C
:10084000130603D5C217C1E9000200E008600120C9
:100850007047000001694A1C02610878704700B5C2
:100860008FB0CDE901310021059105497944CDE9E9
:10087000031011466846FFF733FE0FB000BD0000BD
:10088000E5FFFFFF0A6802F8010B0A60704710B528
:10089000436913B1AFF3008001E0FFF774FD01205D
:1008A00010BD127800F124010A7000224A70012262
:1008B000EDE711684FF0FF32E9E70000074B70B534
:1008C0000D467B44FFF7CBFF0446284600F0BCFCF6
:1008D00010B14FF0FF3070BD204670BDBB2C000042
:1008E0002DE9FF5F15468A460446DFF8AC80F844E0
:1008F0000027D8E900103E46CDE9001010E03AF894
:1009000016106A4602A800F0A3FC411C07D021780B
:10091000890603D5E269391891420DD80744761C3F
:100920002078800602D5E069B84205DDAE42E6DBFC
:100930003AF816000028E2D1A069C01BA061204649
:10094000FFF7FAFCD8E90010CDE90010002017E00D
:100950003AF818106A4602A800F07AFCB0F1FF3F9E
:1009600081460BD000250DF1080B05E0D4E90121EB
:100970001BF8050090476D1C4D45F7D308F10100A9
:10098000B0428046E4DB206A384420622046FFF70C
:10099000E9FCBDE8FF9F0000024B00002DE9F0419B
:1009A0008046D21D22F007020025D2E90002F52977
:1009B00014A612D0002A06DA0023D0EB030063EB62
:1009C000020211A608E0D8F800108B0701D50FA687
:1009D00002E0490701D50EA601251146002408F1C1
:1009E000240704E000F04EF830323A55641C50EA17
:1009F0000102F7D12B46324621464046BDE8F04180
:100A0000FFF7BABE000000002D0000002B00000020
:100A10002000000030B4002100F1240408E002F0BE
:100A20000705D208303542EA4372DB086554491C99
:100A300052EA0305F3D10468002310A2250708D564
:100A400004F020040C4304D0C46901230CA2641EEA
:100A5000C46130BCFFF790BE10B504462146106853
:100A6000FFF781FE02462046BDE810400023D1E793
:100A7000D21D22F00701D1E90023CBE700000000DE
:100A80003000000030B5B0F10A024FEA900E71F16B
:100A900000034EEA817EB0EB0E0061EB91014FEA5C
:100AA000101E4EEA017E10EB0E0041EB11114FEAD1
:100AB000102E4EEA016E10EB0E0041EB11214FEAB1
:100AC000104E4EEA014E10EB0E0041EB1141401862
:100AD00041F100014FEAD00040EA41704FEAD101F4
:100AE00010EB80054FEA810444EA907444EB010462
:100AF0006D1944EB0404521BA3414FF0000348BF9F
:100B00000A3200D530BD401C41F1000130BD7047B4
:100B10002DE9FF4F0C461E464FF0FF378BB0D2E950
:100B20000001DDF860800A908A46C1F30A5505B9D4
:100B30003D46002108464FF00000BAF1000F00F4D6
:100B4000400005DA00EB80004FF4400101EA50005C
:100B50004FEA9059B9F1010F00DDB9460A9850EA01
:100B60004A000ED044F61050A5F2FF3545432F142D
:100B7000B8F1000F1ED07542291E1EDDC9F100021A
:100B80001CE0B8F1010F4FF0000001D0302103E06C
:100B9000F24305E02154401CB042FBDB304600220A
:100BA000002121540B99C1F80880C1E900200FB041
:100BB000BDE8F08FBD1B6D1CDEE74A4600DA6942D6
:100BC00006A800F0DBFB06AB93E8070003AB83E865
:100BD000070050460A9900F043FC8DE80700A0F595
:100BE00000501F3800900398002D09DD42F21F01CC
:100BF0004A46084403A90390684600F0A2FE08E0B4
:100C0000A0F500504A461F3803A90390684600F03B
:100C1000ACFE8DE807000004000C03D04FF0FF305D
:100C2000410800E01046B8F1000F03D00022009206
:100C300015461EE0751E05D4FFF724FF30326255BD
:100C40006D1EF9D5B3460122084302D000227F1C55
:100C500004E02078302801D100227F1E002A099765
:100C600086D01DE0112D07DAFFF70CFF30326255F8
:100C70006D1C50EA0102F5D1084302D00098C8B1BA
:100C80000EE00021681E05E0235C625C6354225480
:100C9000401E491C8142F7DBAB46A81B401E099051
:100CA000002004F80B000B98099AC0F80880C0E9EE
:100CB000002B7CE711264FF0000859E72DE9F04F93
:100CC00088460446D21D22F0070191B0D1E9000107
:100CD000CDE90A0102F029FB02460B98C00F01D0B2
:100CE0002D2007E02068810701D52B2002E020217C
:100CF00001EAC000032A099001D0072A05DB034658
:100D00004146204600F0FAFA09E12078800601D534
:100D1000E06900E00620B8F1650F814606D0B8F121
:100D2000660F18D0B8F1670F70D131E00020B9F12B
:100D3000110F009001DB112301E009F101030AAA60
:100D400001A90CA8FFF7E4FEDDE90C70002609F10B
:100D50000105834647E001204B4600904FF00047D5
:100D60000AAA01A90CA8FFF7D3FEDDE90DB00C9982
:100D70005D46002610B909F101000D18B9EB050018
:100D800003D4C0F1FF3609F10105A5EB09002BE002
:100D9000B9F1010F01DA4FF001090020B9F1110F8B
:100DA0000090484601DD112300E003460AAA01A98C
:100DB0000CA8FFF7ADFEDDE90C704D46002683461A
:100DC000207800070AD4AB4500DA5D4601A8012D62
:100DD00004DD411911F8011C302907D04F4502DA12
:100DE00017F1040F04DA012082460FE06D1EEEE7D2
:100DF000002F02DCED1B3E4403E0781CA84200DD1E
:100E00007D1CB81B00F1010A4FF000472078000755
:100E100003D4AA4501DB4FF0FF3A0021B7F1004FA0
:100E20000DF143088DF8431022D002202B23002F10
:100E300001DA7F422D234FF00A0C011EA0F10100C0
:100E400000DC47B197FBFCF10CFB11720F4630320E
:100E500008F8012DF1E7A8F10100037021880905C8
:100E600001D5452100E06521A0F1010800F8011C31
:100E700009980FA9A1EB0807FF1D00B10120411936
:100E800001EBEA70A1693844081A401EA06120787D
:100E9000C00602D42046FFF74FFA099828B1D4E9DA
:100EA00001219047206A401C20622078C00622D58C
:100EB0002046FFF741FA1EE0002E04DBB34502DDB9
:100EC00001A8805D00E03020D4E901219047206A2C
:100ED000401C2062761CAAF101005FEA000A0AD1D8
:100EE00000F008FAC0680168405CD4E9012190472D
:100EF000206A401C2062281EA5F10105DCDC07E009
:100F0000D4E9012118F8010B9047206A401C2062A7
:100F1000381EA7F10107F3DC2046FFF723FA022071
:100F200011B045E62DE9F04F04460D46D21D22F0E2
:100F3000070089B0D0E9009248461746394602F0CA
:100F4000F4F90246F80F01D02D2307E0206881074D
:100F500001D52B2302E0202101EAC0038DF82030C7
:100F60000BB1012000E00020032A824601D0072AAD
:100F700004DB2946204600F0C1F93BE120788006D9
:100F800001D40D2500E0E569C7F30A560D2D49DAB5
:100F900000214FEA175B08464FF00000002F00F4D5
:100FA000400007DA00EB800000EBD0714FF4400006
:100FB00000EA61008115012901DD4FF0FF310022B7
:100FC0004FEA850CBCF1180F06D31346ACF118009C
:100FD0004FF08052C24003E04FF4801323FA0CF329
:100FE0000CF10C0CBCF1200F04D3ACF1200C09FA6D
:100FF0000CF001E007FA0CF000294FF0004801DD89
:1010000018B90FE00ED140450CD319EB02095F412E
:1010100021B9404502D19F4329EA0209BBEB175F82
:1010200000D0761C2088000502D57A48784402E07A
:1010300078487844193808AA302302F80A30037C2B
:101040000AF10101002E0AF1020A53546A4602DC39
:101050004FF0300101E04FF031014FF001088DF801
:10106000001002D0A6F2FF3603E059EA470100D093
:10107000694E002D02DC2178090704D54FF00208E3
:101080002E218DF80110C44600210BE0C7F3034365
:101090003F01C35C491C6D1E02F80830052908F1A8
:1010A000010801DA002DF1DC00210CE000EB1973DE
:1010B000491C1B786D1E082902F808304FEA0919EF
:1010C00008F1010801DA002DF0DC2178890602D54B
:1010D00014E0A8F10108E04505DD02EB080111F874
:1010E000011C3029F5D0B8F1000F07DD02EB080133
:1010F00011F8011C2E2901D1A8F10108002D05DDF0
:101100003E2102F808106D1E08F10108407C002EF7
:1011100002F8080008F1010804DA2D20764202F8EE
:10112000080002E02B2002F808000A214FF47A732D
:101130009E4208F101080ADB96FBF3F000F130074C
:1011400003FB106602F8087008F1010801E0642E44
:101150000BDB642796FBF7F000F1300307FB10660A
:1011600002F8083008F1010801E00A2E06DB96FBC0
:10117000F1F0303002F8080008F1010896FBF1F0B8
:1011800001FB1060303002F80800A16908F1010885
:1011900008EB050202EB0A00081AA0612078C006DD
:1011A00002D42046FFF7C8F8216A08AE01EB0A0016
:1011B000206204E0D4E9012116F8010B9047BAF14E
:1011C000010AF7D22078C00602D52046FFF7B4F80E
:1011D0006E4609E016F8010B3E280FD0D4E9012134
:1011E0009047206A401C2062B8F10108F2D22046E4
:1011F000FFF7B8F809B00220BDE8F08F206A284454
:10120000206203E0D4E90121302090476D1EEBD32A
:10121000F8E70000DF43000002FCFFFF10B5436960
:1012200013B1AFF3008001E0FFF75AFB012010BDBE
:10123000128800F1240182840022C2840122EDE799
:1012400011684FF0FF32E9E7007B00F08000704743
:1012500070B516460C46054600F044F8036893F84E
:101260000101012806D0FF2C0FD8185D68B10120BC
:101270002C7070BDD3F8070132462146034428463E
:10128000BDE8704003F2071318474FF0FF3070BD00
:1012900000487047501200207546FFF7F9FFAE4630
:1012A00005006946534620F00700854618B020B572
:1012B000FFF710F8BDE820404FF000064FF00007A0
:1012C0004FF000084FF0000B21F00701AC46ACE8EE
:1012D000C009ACE8C009ACE8C009ACE8C0098D465B
:1012E0007047000010B500F005F8001D10BD00BFEC
:1012F000853A000000487047701200202DE9F04147
:101300001F46044603260168072A01F4006004DB37
:1013100008B116A505E016A503E008B115A500E083
:1013200015A521F010002060A069C01EA0610FB1BA
:10133000401EA0612046FEF7FFFF4FB1D4E9012116
:1013400038469047206A401C2062C01C206206E09C
:10135000206AFAE7D4E9012115F8010B9047761EBF
:10136000F8D22046FEF7FEFFBDE8F0814E414E0068
:101370006E616E00494E4600696E66002DE9F047C9
:10138000814616468AB0324878440DC88DE80D0073
:101390002F487844801C03AC0DC884E80D0041F64A
:1013A0009B303722014491FBF2F0A0F1800502FB53
:1013B00010141B3C02D56442012000E00020DFF83D
:1013C00090A080460027FA44AAF1BA0A0DE0E0078F
:1013D00009D03246684607EB47010AEB810100F06D
:1013E000C4FA8DE8070064107F1C002CEFD1184F61
:1013F0007F44A83F18E0E80714D007EB04100DF174
:10140000180A90E80E008AE80E00C068F04201D188
:1014100098190890324606A903A800F0A6FA03AB73
:1014200083E807006D10641C002DE4D13246694644
:10143000B8F1000F03A802D000F083FA01E000F039
:1014400094FAC9E90001C9F808200AB0BDE8F0879C
:10145000144100000446AFF300802046FEF725FF4C
:101460005FEA400C08BF91F0000F4FEA8C234FEA6F
:10147000C12243EA51514FEA1C5018BF00F5F04019
:101480004FEA300018BF41F000415FEA6C5C00F0A9
:101490002980BCF1FF3F08BF40F080407047130C2B
:1014A00006BF12044FF0100C4FF0000C130E04BFD7
:1014B00012020CF1080C130F04BF12010CF1040C02
:1014C000930F04BF92000CF1020CD30F04BF520023
:1014D0000CF1010C11464FF00002A0F11F00A0EB2F
:1014E0000C00704711F0004F08BF704731F0004109
:1014F0003FF4D5AF0B0C06BF09044FF0100C4FF0B2
:10150000000C0B0E04BF09020CF1080C0B0F04BFFA
:1015100009010CF1040C8B0F04BF89000CF1020CC3
:10152000CB0F04BF49000CF1010CCCF12003A0EB60
:101530000C0022FA03F302FA0CF241EA030100F173
:101540000100704720F07F4C80EA030023F07F47C2
:10155000ACEB070303F57C5300F0004003F1FF03FD
:101560002DE980494FEA154B09B44FEA144325EAA7
:101570000B4E24EA03480FF2042606EB1327490812
:101580003E785FEA320203FB0667C7F5000707FBF8
:1015900006F64FEA54374FEAD64606F1020607FB35
:1015A000066CCCF1005C4FEA1C472CEA074C07FBA9
:1015B00006F40CFB06F504EB15464FEA961634BF0D
:1015C00000204FF000404FEAD13706FB07FC4FEAFE
:1015D0001C4C0CFB0BF7D21B03FB0CF761EB070158
:1015E0000CFB0EF7B0EB074072EB17420CFB08F751
:1015F00034BFA2EB0742B2EB074261EB17414FEA5F
:101600000C444FEA910706FB07FC4FEA1C4C0CFB0D
:101610000BF7B0EBC74072EB573203FB0CF734BF4C
:10162000A2EBC742B2EBC74261EB57310CFB0EF79E
:10163000B0EBC70072EB57720CFB08F734BFA2EB9C
:10164000C702B2EBC70261EB5771039F4FEA81619A
:1016500041EA921104EBCC044FEAD1374FEA82629F
:1016600006FB07FC42EA90124FEA80604FEA1C4CEE
:101670000CFB0BF7D21B03FB0CF761EB07010CFB18
:101680000EF7B0EB074072EB17420CFB08F734BFC4
:10169000A2EB0742B2EB074261EB17414FEA8C55D0
:1016A0004FEA910704EB9C2406FB07FC4FEA1C4C15
:1016B0000CFB0BF7B0EBC74072EB573203FB0CF798
:1016C00034BFA2EBC742B2EBC74261EB57310CFB10
:1016D0000EF7B0EBC70072EB57720CFB08F734BF84
:1016E000A2EBC702B2EBC70261EB577115EB4C25B9
:1016F0004FEA816141EA92114FEA82624FEAD137A3
:1017000042EA901206FB07FC44F100044FEA8060B5
:101710004FEA1C4C0CFB0BF7D21B03FB0CF761EBE5
:1017200007010CFB0EF7B0EB074072EB17420CFB06
:1017300008F734BFA2EB0742B2EB074261EB174157
:1017400015EB1C154FEA813141EA92414FEA823292
:1017500042EA90424FEA80304FEA0C7644F10004AE
:1017600048EA03434EEA0B484FF0000EB2EB080C78
:1017700071EB030724BF624639464EEB0E0E4FF065
:10178000000B0018524149414BEB0B0BB2EB080C1C
:1017900071EB03077BF1000B24BF624639464EEB29
:1017A0000E0E4FF0000B0018524149414BEB0B0B52
:1017B000B2EB080C71EB03077BF1000B24BF624610
:1017C00039464EEB0E0E51EA020718BF46F00106ED
:1017D00016EB0E7655F1000254F1000103D5BDE879
:1017E0008901BDE80088BDE88901B619BDE8004857
:1017F000524141EB0101A3F10103704780807F7EDC
:101800007D7C7B7A79787776767574737271717076
:101810006F6E6E6D6C6C6B6A6A6968686766666528
:101820006464636362616160605F5F5E5E5D5D5CB6
:101830005C5B5B5A5A595958585757565655555527
:101840005454535352525251515050504F4F4F4E87
:101850004E4D4D4D4C4C4C4B4B4B4A4A4A494949D5
:101860004848484747474746464645454544444417
:10187000444343434342424242414141002B26D428
:10188000770021D01CB54FEA370703B44FF01000A2
:101890004FF010014FF000000FBC0BF1010BBDE841
:1018A0001040BBF1010F08BF5FEA170722BF12F11A
:1018B000010211F101014FF0004143F1000300F07A
:1018C000004043EA00007047F9D35708DAE746EAD8
:1018D000064613F1400F4FEA16461FDD13F1200FA5
:1018E000DFBF16430A46002120335B42C8D0C3F154
:1018F000200746EA064602FA07F74FEA164646EA86
:101900000706C3F1200722FA03F201FA07F721FACA
:1019100003F14FF0000342EA0702B1E746EA02068C
:1019200046EA06464FEA164646EA0106BCBF46EAC4
:101930000646360C4FF000034FF000024FF0000156
:101940009EE72DE9C048934630B491E8380007C8B7
:1019500031EA400C48BF34EA430C03D5FFF7F2FDEF
:10196000FFF78CFFF0BCBDE800882DE9C048934626
:1019700030B491E8380007C810F0804F08BF13F06A
:10198000804F03D100F005F8FFF778FFF0BCBDE809
:10199000008820F07F4780EA030023F07F4C07EBAC
:1019A0000C03A3F57C5300F00040A3F1FE0392F07A
:1019B000000F00F0B38095F0000F00F077802DE964
:1019C00001494FEA11404FEA144621EA004800FB62
:1019D00006FC24EA064708FB06F607FB08F800FBAE
:1019E00007F718EB06484CEB164C4FEA124B18EB76
:1019F00007484FEA15464CEB174022EA0B4E0BFB0B
:101A000006FC25EA06470EFB06F607FB0EFE0BFB5F
:101A100007F71EEB064E4CEB164C4FF000061EEB84
:101A2000074E4CEB174B18EB0B0840F1000018EB7E
:101A30000E0B58EB000840F100008F1A4FF0000128
:101A40003CBFC943661B14BFB5EB040C00213CBF6F
:101A5000C943F61B4FEA17444EEA8E0E27EA0445A7
:101A60004FEA1C4704FB07622CEA074C05FB07F70B
:101A70000CFB05F604FB0CFC16EB074642EB174289
:101A800016EB0C4642EB1C421BEB060658EB02021F
:101A9000414146EA9E0601D5BDE80189B619524189
:101AA00041EB0101A3F10103BDE801894FEA1445AF
:101AB0004FEA114724EA054621EA074C05FB07F4E3
:101AC00006FB07F70CFB06F105FB0CFC11EB0741CD
:101AD00044EB17444FEA124711EB0C4144EB1C4412
:101AE00022EA074C05FB07F206FB07F70CFB06F69C
:101AF00005FB0CFC16EB074642EB174216EB0C46B7
:101B000042EB1C456A1854F1000148BF7047B619F2
:101B1000524141EB0101A3F10103704795F0000F21
:101B200037D04FEA11424FEA144721EA024624EA2D
:101B3000074C02FB07F106FB07F70CFB06F402FB60
:101B40000CFC14EB074441EB17414FEA154714EB2B
:101B50000C4441EB1C4125EA074C02FB07F506FB50
:101B600007F70CFB06F602FB0CFC16EB074645EBF1
:101B7000174516EB0C4645EB1C42121951F10001BA
:101B800048BF7047B619524141EB0101A3F101036F
:101B900070474FEA14454FEA114724EA054621EA07
:101BA000074C05FB07F106FB07F70CFB06F24FF0AD
:101BB000000605FB0CFC12EB074241EB174112EB50
:101BC0000C4251EB1C4148BF7047921841EB010198
:101BD000A3F10103704700BFFEE721B1026842F0A4
:101BE0000102026004E002684FF6FE731A400260D0
:101BF0007047000001684FF6FE721140016000213D
:101C0000016041608160C1604B49884208D14A4906
:101C10000839496841F00F01474A083A51608AE0A3
:101C200045491431884208D143490839496841F08F
:101C3000F001414A083A51607DE03F49283188422D
:101C400008D13D490839496841F470613A4A083A77
:101C5000516070E038493C31884208D13649083932
:101C6000496841F47041344A083A516063E03249AE
:101C70005031884208D130490839496841F470210F
:101C80002D4A083A516056E02B496431884208D108
:101C900029490839496841F47001274A083A5160D6
:101CA00049E025497831884208D1234908394968F3
:101CB00041F07061204A083A51603CE01F49884277
:101CC00006D1011F096841F00F01021F116032E0C7
:101CD0001A491431884208D11849091F096841F08E
:101CE000F001164A121F116025E01449283188427C
:101CF00008D11249091F096841F470610F4A121F87
:101D0000116018E00D493C31884208D10B49091F88
:101D1000096841F47041094A121F11600BE007493C
:101D20005031884207D10549091F096841F47021E3
:101D3000024A121F11607047080002400804024066
:101D40000146486880B2704710B50022026847F625
:101D5000F0739A430C6A8B6823430C6923434C69E4
:101D600023438C692343CC6923434C6A23438C6A05
:101D700023431A430260CB6843600B6883604B685F
:101D8000C36010BD41607047704700002DE9F0410D
:101D90008AB00A2001F0A8FB0121834800F05DFA17
:101DA00000287BD181484178007801EB0028AF20E2
:101DB00008FB00F04FF6FF71B0FBF1F02D38C6B212
:101DC0007B484178007801EB0025642068434FF69A
:101DD000F471B0FBF1F0C7B2764977A0FEF7A0FA34
:101DE000744880798DF824007248C0798DF82500F8
:101DF0007048007A8DF8260000208DF827006D4885
:101E0000C07A8DF820006B48007B8DF821000020FF
:101E10008DF822006748807B8DF81C006548C07BE8
:101E20008DF81D006348007C8DF81E0000208DF8A1
:101E30001F006048807C8DF814005E48C07C8DF8DF
:101E400015005C48007D8DF816005A48407D8DF8DD
:101E5000170000208DF81800002407E004F1170097
:101E60005449085C02A90855601CC4B2082CF5DB73
:101E7000002002A9085501F06CFC4FF6FF734FA239
:101E80001E212A2001F042FD4FF6FF7309AA1E21F0
:101E9000502001F03BFD4FF6FF7300E073E049A2D4
:101EA00032212A2001F032FD4FF6FF7308AA3221B9
:101EB0004B2001F02BFD4FF6FF7344A246212A2050
:101EC00001F024FD4FF6FF7307AA46215A2001F0C6
:101ED0001DFD4FF6FF733FA25A212A2001F016FD87
:101EE0004FF6FF7305AA5A21502001F00FFD4FF65F
:101EF000FF733AA26E212A2001F008FD4FF6FF730E
:101F000002AA6E21502001F001FD4FF6FF7335A2A9
:101F100082212A2001F0FAFC4FF6FF70022332469C
:101F200082210090502001F0B1FC4FF6FF732FA2E8
:101F300096212A2001F0EAFC4FF6FF7002233A4670
:101F4000962100904B2001F0A1FC002405E04FF405
:101F50007A7001F0C9FA601CC4B2082CF7DB09A939
:101F600024A0FEF7DDF908A922A0FEF7D9F907A9F8
:101F700020A0FEF7D5F905A91EA0FEF7D1F902A908
:101F80001CA0FEF7CDF9002001F0E3FB4FF6FF7334
:101F90001AA23C21162001F0B9FC012000F062F8E1
:101FA0000AB0BDE8F081000000080140980300205D
:101FB0009A0300203012002025730A007765656BB4
:101FC0003A0000006461793A000000006D6F6E74A1
:101FD000683A0000796561723A00000074696D65C5
:101FE0003A00000054454D503A00000048554D3A23
:101FF0000000000025730D0A00000000576169749D
:10200000696E6720666F7220636F6D6D616E64002C
:102010000EB500F0B3FA0121084600F035FC0021AE
:10202000084600F06FF80120019000208DF80800AC
:102030000C208DF8090001208DF80A0001A800F09D
:1020400017F806208DF8000002208DF8010003200B
:102050008DF8020001208DF80300684600F0A0FB17
:102060000EBD0000014908607047000014040140E3
:10207000002123498279002A3AD00A46126803686F
:102080009A430B461A600A1D126803689A430B1D97
:102090001A60027911440A6803681A430A60184AF0
:1020A0000832126803689A43154B08331A601A1DE8
:1020B000126803689A43124B0C331A604279102A53
:1020C0000ED11A1F126803681A430D4B08331A60A9
:1020D0001A1D126803681A43094B0C331A600DE08D
:1020E0000749427911440A6803681A430A6005E007
:1020F000027911440A6803689A430A607047000035
:102100000004014030B500228B071C0F0F2303FA97
:1021100004F20B4B8C1053F824309343084C8D1071
:1021200044F8253023468C1053F824308C07240FB4
:1021300000FA04F42343024C8D1044F8253030BDDE
:10214000080001402DE9F04102460025002600204C
:1021500000230024002791F803C00CF00F0591F82C
:1021600003C00CF0100CBCF1000F03D091F802C0BA
:102170004CEA050591F800C0BCF1000F31D014689D
:1021800000202BE04FF0010C0CFA00F3B1F800C076
:102190000CEA03069E4220D183004FF00F0C0CFA8C
:1021A00003F7BC4305FA03FC4CEA040491F803C0AE
:1021B000BCF1280F06D14FF0010C0CFA00FCC2F85C
:1021C00014C00AE091F803C0BCF1480F05D14FF0EC
:1021D000010C0CFA00FCC2F810C0401C0828D1D336
:1021E0001460B1F800C0BCF1FF0F34DD546800206A
:1021F0002EE000F1080C4FF0010808FA0CF3B1F8DA
:1022000000C00CEA03069E4221D183004FF00F0C60
:102210000CFA03F7BC4305FA03FC4CEA040491F8FA
:1022200003C0BCF1280F05D100F1080C08FA0CF826
:10223000C2F8148091F803C0BCF1480F07D100F137
:10224000080C4FF0010808FA0CF8C2F81080401C86
:102250000828CED35460BDE8F08102460020936880
:102260000B400BB1012000E0002070474161704736
:102270000161704700BFFEE700B585B0012188030A
:1022800000F0E2FA4FF40070ADF80A000020ADF85B
:102290000800ADF806004FF48270ADF8020000208F
:1022A000ADF80400ADF80E004FF44040ADF800006A
:1022B0000720ADF810000020ADF80C006946044876
:1022C00000F0CBFB0121024800F0B0FB05B000BDDF
:1022D0000038004010B500200F4908600F48006822
:1022E00020F070400D4908600846006840F04050FA
:1022F000086000200A49C1F89C01022001F01AF987
:10230000012005490860022001F014F90020044969
:10231000C1F8980110BD000098812142000C0140D5
:102320000080214208B50121082000F0ADFAC0204C
:10233000ADF8000010208DF8030003208DF8020096
:1023400069460448FFF7FEFEC0210248FFF790FFF0
:1023500008BD0000000C014010B500200F490860C6
:102360000F48006820F070400D490860084600687A
:1023700040F04050086001200A49C1F89C01022049
:1023800001F0D8F8012005490860022001F0D2F8D8
:1023900000200449C1F8980110BD00009881214235
:1023A000000C01400080214270B50546002417480A
:1023B000006820F07040154908600846006840F049
:1023C00000400860002616E0002011490860022045
:1023D00001F0B0F801200F49C1F898016006040E21
:1023E0000B487C38006808B1601CC4B2012001F0C1
:1023F000A1F8701CC6B2082EE6DB15B9FFF7ACFFDA
:1024000001E0FFF767FF204670BD0000000C0140AF
:10241000988121420080214270B504461548006829
:1024200020F07040134908600846006840F04050B2
:102430000860002010490860002517E0E0090E49F7
:10244000091D08606006040E022001F073F80120E7
:102450000A49C1F89801022001F06CF800200649F1
:102460000860022001F066F8681CC5B2082DE5DBA3
:1024700070BD0000000C0140988121420080214283
:1024800010B50F48006820F070400D4908600846FC
:10249000006840F04050086001200A4908600A497D
:1024A000C1F89801042001F045F8002005490860B2
:1024B000042001F03FF800200349C1F8980110BD45
:1024C000000C01409C8121420080214210B50F4840
:1024D000006820F070400D4908600846006840F030
:1024E0004050086000200A4908600A49C1F89C0170
:1024F000042001F01FF80120054908600549C1F8D2
:102500009C01042001F016F810BD0000000C0140F1
:10251000988121420080214210B5002414480068AF
:1025200020F07040124908600846006840F0004002
:10253000086001200F49086000F0FCFF01200E49EF
:10254000C1F8980100F0F6FF07E0601CC4B2FA2C55
:1025500003DDFFF7BBFF012010BD0648803800688F
:102560000028F2D10349091F086000BFF4E700000A
:10257000000C01409C8121420080214208B50121CC
:10258000042000F081F90320ADF8000048208DF808
:10259000030069460148FFF7D5FD08BD000801406A
:1025A00010B500F079FAFFF767FE4FF480517948D3
:1025B000FFF75EFE4FF400617648FFF759FE4FF4D7
:1025C00080417448FFF754FE4FF400617148FFF7F3
:1025D0004DFE142000F088FF4FF400616D48FFF7B6
:1025E00047FE642000F080FF4FF480616948FFF7E8
:1025F0003FFE112001F0DEF9782000F075FF362053
:1026000001F0D8F9002001F0BDF93A2001F0D2F92B
:10261000552001F0B7F9B22001F0CCF90C2001F0FF
:10262000B1F90C2001F0AEF9002001F0ABF9332034
:1026300001F0A8F9332001F0A5F9B72001F0BAF9AB
:10264000352001F09FF9BB2001F0B4F9322001F0F0
:1026500099F9C22001F0AEF9012001F093F9C320ED
:1026600001F0A8F9192001F08DF9C42001F0A2F9B8
:10267000202001F087F9C62001F09CF90F2001F01D
:1026800081F9D02001F096F9A42001F07BF9A12076
:1026900001F078F9E02001F08DF9D02001F072F915
:1026A000082001F06FF90E2001F06CF9092001F00B
:1026B00069F9092001F066F9052001F063F931207C
:1026C00001F060F9332001F05DF9482001F05AF97A
:1026D000172001F057F9142001F054F9152001F0EA
:1026E00051F9312001F04EF9342001F04BF9E1208D
:1026F00001F060F9D02001F045F9082001F042F91D
:102700000E2001F03FF9092001F03CF9092001F009
:1027100039F9152001F036F9312001F033F9332071
:1027200001F030F9482001F02DF9172001F02AF9C5
:10273000142001F027F9152001F024F9312001F0CF
:1027400021F9342001F01EF9212001F033F92A206B
:1027500001F030F9002001F015F9002001F012F924
:10276000002001F00FF9EF2001F00CF92B2001F00F
:1027700021F9002001F006F9002001F003F9002002
:1027800001F000F9EF2001F0FDF8292001F012F925
:1027900010BD0000000C014000BFFEE770470000C4
:1027A00070B5002100230F22C47804B3154C2468AF
:1027B00004F4E064C4F5E064210AC1F10403CA40F2
:1027C000447804FA03F184781440214309010E4C43
:1027D0000678A155047804F01F050124AC40057863
:1027E0006D11AD0005F1E025C5F8004109E0047860
:1027F00004F01F050124AC40044D0678761145F81D
:10280000264070BD0CED00E000E400E080E100E057
:1028100002490143024A1160704700000000FA05B6
:102820000CED00E07047000029B1064A52690243EE
:10283000044B5A6104E0034A52698243014B5A61D6
:10284000704700000010024029B1064AD2690243D5
:10285000044BDA6104E0034AD2698243014BDA6136
:10286000704700000010024029B1064A1269024375
:10287000044B1A6104E0034A12698243014B1A6156
:10288000704700000010024029B1064A92690243D5
:10289000044B9A6104E0034A92698243014B9A61B6
:1028A000704700000010024029B1064AD268024376
:1028B000044BDA6004E0034AD2688243014BDA60D9
:1028C000704700000010024030B5002100220024B3
:1028D00000232D4D6D6805F00C0121B1042905D0B0
:1028E000082923D105E0294D056022E0274D056028
:1028F0001FE0254D6D6805F47012234D6D6805F4D9
:102900008034022505EB92421CB9214D55430560E8
:102910000BE01D4D6D6805F400351DB11C4D554390
:10292000056002E0194D5543056002E0174D056052
:1029300000BF00BF144D6D6805F0F0010909154D89
:102940006B5C0568DD4045600F4D6D6805F4E06126
:10295000090A104D6B5C4568DD4085600A4D6D6865
:1029600005F46051C90A0B4D6B5C4568DD40C560DC
:10297000054D6D6805F44041890B074D6B5CC568DA
:10298000B5FBF3F5056130BD0010024000127A007E
:1029900000093D001E0000202E00002070B50546F5
:1029A0000C46FFF76DFD8820FFF736FDFFF7B4FDFD
:1029B0002420FFF731FDFFF7AFFD0B20FFF72CFDC3
:1029C000FFF7AAFDFFF782FD0A2000F08DFDFFF75B
:1029D00057FD8920FFF720FD022000F085FDFFF75D
:1029E00075FD0A2000F080FDFFF74AFD8920FFF702
:1029F00013FDFFF791FD0120FFF7D6FC28706D1C39
:102A00000120FFF7D1FC28700120FFF7CDFC012049
:102A1000FFF7CAFC2070641C0120FFF7C5FC207082
:102A20000020FFF7C1FCFFF751FD70BD21B1028806
:102A300042F04002028004E002884FF6BF731A4061
:102A4000028070470246002013890B400BB1012021
:102A500000E0002070478181704710B50022028895
:102A600002F441520B884C8823438C882343CC8842
:102A700023430C8923434C8923438C892343CC89EA
:102A800023431A430280838B4FF2FF7423408383D6
:102A90000B8A038210BD000008B501210820FFF752
:102AA000F3FE4FF4B040ADF8000010208DF80300A5
:102AB00003208DF8020069460B48FFF743FB012114
:102AC0000820FFF7E1FE4FF42040ADF80000182089
:102AD0008DF8030069460448FFF734FB4FF480513A
:102AE0000148FFF7C5FB08BD000C0140704710B559
:102AF00000F002F810BD00000CB50020019000901D
:102B00003348006840F480303149086000BF3048E5
:102B1000006800F4003000900198401C019000987B
:102B200018B90198B0F5A06FF1D12948006800F4F8
:102B3000003010B10120009001E0002000900098CA
:102B4000012843D12348006840F010002149086063
:102B50000846006820F0030008600846006840F05E
:102B6000020008601A4840681949486008464068F1
:102B700048600846406840F4806048600846406805
:102B800020F47C1048600846406840F4E810486033
:102B90000846006840F08070086000BF0C4800687C
:102BA00000F000700028F9D00948406820F00300C8
:102BB000074948600846406840F00200486000BF8E
:102BC0000348406800F00C000828F9D10CBD000053
:102BD0000010024000200240042808D14FF0E021FC
:102BE000096941F004014FF0E022116107E04FF064
:102BF000E021096921F004014FF0E02211617047E2
:102C00007047000010B51348006840F001001149FA
:102C1000086008464068104908400E494860084668
:102C200000680E4908400B4908600846006820F417
:102C3000802008600846406820F4FE0048604FF499
:102C40001F008860FFF753FF4FF0006004490860E1
:102C500010BD0000001002400000FFF8FFFFF6FE6C
:102C600008ED00E010B54FF08040008A00F0010050
:102C700048B109490869804700204FF080418884A5
:102C80004FF47A7088854FF08040008A20F0010070
:102C90004FF08041088210BDD803002010B50121FB
:102CA000084800F062F860B10748008840F400402E
:102CB000054908800121034800F048F8002000F091
:102CC00031F810BD00080040320000207FB50546F5
:102CD0000C4601210420FFF7B7FDADF80450ADF814
:102CE00000400020ADF80600ADF8020069460C482F
:102CF00000F058F801221146094800F047F81E205C
:102D00008DF80C0001208DF80D0002208DF80E00CA
:102D100001208DF80F0003A8FFF742FD7FBD0000E2
:102D20000008004010B5044644B10021064800F0F8
:102D300036F80121044800F00CF803E000210248B5
:102D400000F007F810BD000000080040CA430282EE
:102D5000704721B1028842F00102028004E002883B
:102D60004FF6FE731A400280704730B502460020CD
:102D700000230024158A05EA0103958905EA010468
:102D800013B10CB1012000E0002030BD1AB18389DD
:102D90000B43838102E083898B4383817047818465
:102DA00070470000002202881D4B98420ED01D4B38
:102DB00098420BD0B0F1804F08D01B4B984205D001
:102DC0001A4B984202D01A4B984204D14FF68F7397
:102DD0001A404B881A43174B984207D0164B98421B
:102DE00004D04FF6FF431A40CB881A4302808B88E9
:102DF00083850B8803850A4B98420BD0094B984278
:102E000008D00E4B984205D00D4B984202D00D4B86
:102E1000984201D10B7A0386012383827047000018
:102E2000002C014000340140000400400008004034
:102E3000000C004000100040001400400040014021
:102E400000440140004801407FB505460C46012181
:102E50000846FFF7F9FCADF80850ADF80440002033
:102E6000ADF80A00ADF8060001A94FF08040FFF769
:102E700099FF012241218807FFF788FF1C208DF868
:102E8000000003208DF801008DF8020001208DF86C
:102E900003006846FFF784FC01218807FFF759FF0C
:102EA0007FBD70B58CB006460C461546012108461C
:102EB000FFF7BAFC3046FEF79DFE01940295102004
:102EC0000390002004900590802006900020079039
:102ED000089009904FF480500A9000200B9001A9AF
:102EE0003046FEF731FF0CB070BD70B504460D469C
:102EF00000212046FEF771FE29462046FEF742FFDC
:102F000001212046FEF769FE70BD000010B540F2B9
:102F100025511D4800F046F910B31B4800F0FEF99A
:102F2000C4B21A48008800F40040C8B917480088A5
:102F300000F4804060B10A2C03D0002013490880BF
:102F400020E01248008840F400401049088019E051
:102F50000D2C06D10D48008840F480400B490880B4
:102F600010E00A480088C0F30D0009490C540748D6
:102F70000088401C0549088008460088C72801DDF4
:102F80000020088010BD0000003801401C00002017
:102F90006805002010B540F22551134800F002F9F1
:102FA00008B3114800F0BAF9C4B210480088B0F56F
:102FB000006F12DA00210E48FFF7F1FE0B4800887F
:102FC00010B90120FFF7AEFE084801880088401CB8
:102FD000064A10800748445405E00448008840F43D
:102FE00000400249088010BD00440040320000202B
:102FF00000080040300A002010B586B004460121C8
:103000000420FFF741FC01214804FFF71DFC2E4876
:1030100000F07AF80420ADF8100003208DF81200BB
:1030200018208DF8130004A92848FFF78BF8082012
:10303000ADF8100004208DF8130004A92348FFF711
:1030400081F800940020ADF80400ADF80600ADF85A
:103050000800ADF80C000C20ADF80A0069461A48CB
:1030600000F0F0F801228021174800F043F8184AD8
:103070001549091D1748FFF714FF0121124800F0F8
:103080002DF8012240F225510F4800F0B5F8262016
:103090008DF8140002208DF8150003208DF816001D
:1030A00001208DF8170005A8FFF77AFB41F61F41B4
:1030B00040F2E730FFF70AFE002007490880FFF7DB
:1030C00031FE06B010BD0000004400400008014081
:1030D00030060020800002403200002021B18289A9
:1030E00042F40052828104E082894DF6FF731A4057
:1030F000828170471AB1838A0B43838202E0838AFC
:103100008B4383827047000010B5044620488442F8
:1031100009D101218803FFF7C7FB00214FF480404C
:10312000FFF7C2FB32E01B48844209D10121480469
:10313000FFF79AFB00214FF40030FFF795FB25E0E5
:103140001548844209D101218804FFF78DFB002135
:103150004FF48020FFF788FB18E01048844209D123
:103160000121C804FFF780FB00214FF40020FFF786
:103170007BFB0BE00A48844208D101210805FFF7D8
:1031800073FB00214FF48010FFF76EFB10BD0000B1
:10319000003801400044004000480040004C00401E
:1031A0000050004070B50246002400230025002096
:1031B00040F66A16B14200D100BFC1F3421501F0DA
:1031C0001F03012606FA03F3012D02D1968933402D
:1031D00006E0022D02D1168A334001E0968A334080
:1031E0000C12012606FA04F41688344013B10CB10F
:1031F000012000E0002070BDF0B503460024002649
:103200000025002040F66A17B94200D100BF1846D9
:10321000C1F3421401F01F06012707FA06F5012C3D
:1032200001D10C3004E0022C01D1103000E0143048
:103230001AB107682F43076002E00768AF430760D1
:10324000F0BD00002DE9F04786B005460E4600248B
:10325000A24600BFA1460027B08900B100BF2F469B
:103260002C8A4CF6FF700440F08804432C82AC8911
:103270004EF6F3100440B088318908437189084341
:103280000443AC81AC8A4FF6FF400440B08904434C
:10329000AC8201A8FFF718FB1F48874202D1DDF876
:1032A00010A001E0DDF80CA0A88900F4004040B1B6
:1032B0000AEBCA0000EB0A1031684900B0FBF1F8D4
:1032C00007E00AEBCA0000EB0A1031688900B0FB86
:1032D000F1F86420B8FBF0F004012009642101FB3F
:1032E0001089A88900F4004040B1322000EBC900E9
:1032F000B0FBF1F000F00700044308E0322000EBDF
:1033000009106421B0FBF1F000F00F0004432C81A0
:1033100006B0BDE8F087000000380140014688880B
:10332000C0F30800704700BFFEE7490050EAC12023
:1033300018BF04204A0D18BF40F0010040F2FF7290
:10334000B2EB515F08BF40F00200012808BF052022
:10335000704730380A2801D201207047002070479A
:1033600000BF704710B504460A48008800F40040CA
:1033700070B1002007490988C1F30E01064A505474
:10338000114606A0FCF7CCFF14B1002001490880CB
:1033900010BD000032000020300A0020257300001C
:1033A00070B5044600250948008800F4004058B173
:1033B000002006490988C1F30E01054A50542146F0
:1033C0001046FDF751F90546284670BD3200002031
:1033D000300A002010B500BF1748008800F04000F8
:1033E0000028F9D02B201449091D08800F2000F077
:1033F0007BF800BF1048008800F040000028F9D09A
:103400002B200D49091D08800F2000F06DF800BF2A
:103410000948008800F040000028F9D02B20064918
:10342000091D08804FF4FA7000F05EF8142203A121
:1034300003A000F007F810BD004400404F4B00000F
:10344000415400002DE9F04106460D461446002780
:10345000002011490880314610A000F08DFBC5B155
:10346000BCB10FE00A2000F03FF80B48008800F4E0
:10347000004038B12846FFF793FF00B106E0002076
:1034800005490880601E80B20400EBD100BF04B97A
:1034900001273846BDE8F0813200002025730D0A6F
:1034A0000000000010B56FF00400FFF795FB0A481C
:1034B00000680A49B0FBF1F0094908700846007835
:1034C00000EB4001C1EBC0104FF6FF7101EAC000F4
:1034D0000449088010BD00000000002000127A009E
:1034E00014000020160000200146114A12884A43A9
:1034F0004FF0E0235A6100229A611A46126942F0A5
:1035000001021A6100BF4FF0E022106900F00102D1
:103510001AB100F48032002AF5D04FF0E02212698F
:1035200022F001024FF0E0231A6100229A617047F5
:10353000160000200146114A12784A434FF0E0235A
:103540005A6100229A611A46126942F001021A6118
:1035500000BF4FF0E022106900F001021AB100F440
:103560008032002AF5D04FF0E022126922F00102E9
:103570004FF0E0231A6100229A6170471400002086
:1035800000BF054A128802F04002002AF9D0C2B2F8
:10359000014B1B1D1A807047003801402DE9F04196
:1035A00020A622A70020264908700025804625492C
:1035B000088025A000F0E0FA4FF4FA70FFF794FFBE
:1035C0000020FFF7CFFE31462248FDF74DF80546B3
:1035D00039462048FDF748F880460AE028781E4919
:1035E000174A127888546D1C15480078401C1449FD
:1035F00008704545F2D300201749114A12788854C3
:10360000002407E004F117001349085C134908552A
:10361000601CC4B2052CF5DB002010490855BDE83C
:10362000F0810000446174653A200000436F6E6EC3
:10363000656374696F6E3A20636C6F736500000098
:10364000F4040020320000206765745F74696D65C2
:103650000D0A0000300A002030120020F50400207E
:10366000FFF720FF4FF4A060FFF7D2F84FF4E130EE
:1036700000F0A2FA4FF4E130FFF7BEFCFEF790FF36
:10368000FEF77CFFFEF7C4FCFEF74CFE002000F0C6
:1036900060F84FF6FF7312A23C212A2000F036F9A1
:1036A00000F0A0F94FF6FF7311A23C212A2000F090
:1036B0002DF913E013491448FFF770F9FFF76EFF77
:1036C0004FF6FF7311A250212A2000F01FF94FF688
:1036D000FF73104A5021084600F018F9EAE700008D
:1036E000496E697469616C697A696E672E2E2E0065
:1036F00057616974696E6720666F7220636F6D6DC4
:10370000616E64009A0300209803002074696D655F
:103710003A000000F50400202DE9F04107460C4670
:1037200015461E462A2000F045F9384600F00EF9ED
:10373000284600F00BF92B2000F03CF9204600F061
:1037400005F9304600F002F92C2000F033F9BDE80D
:10375000F08170B50646EF231A4600210846FFF7B0
:10376000DBFF002408E0002503E0304600F0EEF81F
:103770006D1CF02DF9D3641CF02CF4D370BD70B522
:1037800004460D4616462B46224629462046FFF79C
:10379000C3FF304600F0DAF870BD000010B50446F3
:1037A00021460548FFF757F900BF02210248FFF7FD
:1037B00049F90028F9D010BD003800402DE9F84F34
:1037C00005460F4616469A46DDF828B00095E02DCE
:1037D00001D8E02F01D9BDE8F88FA6F12000C6B2CC
:1037E00007F10F03EA1D39462846FFF795FFBAF1A6
:1037F000000F25D1002420E004EB0610214911F828
:1038000000904FF0000811E009F0010018B158468F
:1038100000F09CF803E01C48006800F097F84FEABD
:1038200069096D1C08F1010000F0FF08B8F1080FEC
:10383000EADB009D7F1C601CC4B2102CDCDB1FE0A7
:1038400000241BE004EB06100E4911F800904FF025
:1038500000080EE009F0010028B1391905EB080055
:103860005A46FFF78CFF4FEA690908F1010000F0A2
:10387000FF08B8F1080FEDDB601CC4B2102CE1DBCF
:1038800000BFA8E7A84D0008940300202DE9F84FD9
:1038900006468A4690461D46DDF828904FF0000BFC
:1038A00000242FE0281B401EC1B20A2000F056F968
:1038B000B8FBF0F00A21B0FBF1F201FB1207BBF1FB
:1038C000000F10D1681EA0420DDD57B9082101FB81
:1038D0000460002320225146CDF80090FFF76EFFD0
:1038E0000EE04FF0010B07F13001CAB2082101FBD5
:1038F000046000235146CDF80090FFF75FFF00BF42
:10390000601CC4B2AC42CDDBBDE8F88FF8B505460B
:103910000E4614461F4615E0E02D01D9002510364D
:10392000E02E06D90020054606464FF47840FFF702
:1039300010FF00972278002331462846FFF73EFF0C
:103940000835641C20780028E6D1F8BD10B504467F
:103950004FF480510A48FEF789FC4FF48041084833
:10396000FEF786FCC4F30720FFF718FFE0B2FFF76D
:1039700015FF4FF480510248FEF77AFC10BD00009D
:10398000000C014010B504464FF480510848FEF782
:103990006DFC4FF480410648FEF76AFC2046FFF7B5
:1039A000FDFE4FF480510248FEF762FC10BD00009E
:1039B000000C014010B504464FF480510848FEF752
:1039C00055FC4FF480410648FEF750FC2046FFF7B7
:1039D000E5FE4FF480510248FEF74AFC10BD00009E
:1039E000000C014010B50F2406E0FFF7F3FCC822DD
:1039F0002EA12FA0FFF726FD14222CA130A0FFF747
:103A000021FD0028F1D1142228A12EA0FFF71AFDD4
:103A10000020FFF7A7FC322224A12CA0FFF712FD03
:103A2000142222A12CA0FFF70DFD6420FFF75CFDFE
:103A300014221EA12AA0FFF705FD00BF4FF47A72E1
:103A40001EA12AA0FFF7FEFC0028F7D105E04FF4E5
:103A50007A70FFF749FD601EC4B2002CF7DC00BF8E
:103A6000642216A12BA0FFF7EDFC0028F8D1FFF788
:103A700079FC6420FFF738FD00BF14220BA130A0B1
:103A8000FFF7E0FC0028F8D1FFF76CFC4FF47A70E8
:103A9000FFF72AFD00BF642208A12DA0FFF7D2FC8A
:103AA0000028F8D1FFF75EFC10BD00004F4B00006E
:103AB00041542B4349504D4F44453D3000000000D8
:103AC00041540000415445300000000041542B4354
:103AD000574D4F44453D310041542B525354000043
:103AE00041542B4349504D55583D300041542B43D0
:103AF000574A41503D226E6F766120352050726FDB
:103B0000222C2231333739323438366368656E22DD
:103B10000000000041542B43495053544152543D3E
:103B200022544350222C227777772E6265696A6986
:103B30006E672D74696D652E6F7267222C383000A8
:103B400041542B4349504D4F44453D310000000046
:103B500041542B43495053454E44000010B5024692
:103B6000012000E050430B00A1F10104E1B2F9D1C2
:103B700010BD0146086870470FB438B505A800901D
:103B80000B48009A0499FCF7B9FB0020009000BF95
:103B90000848FEF7D5F80028FAD10548FCF776FD6D
:103BA000C4B221460348FFF7A0F938BC5DF814FB06
:103BB000300600208000024010B586B00446012186
:103BC00044F20400FEF760FE4FF40070ADF81400FC
:103BD00003208DF8160018208DF8170005A91C4841
:103BE000FEF7B0FA4FF48060ADF8140004208DF8B1
:103BF000170005A91648FEF7A5FA25208DF8000044
:103C000003208DF801008DF8020001208DF80300DB
:103C10006846FEF7C5FD01940020ADF80800ADF838
:103C20000A00ADF80C00ADF810000C20ADF80E0045
:103C300001A90848FFF706FB012240F2255105487B
:103C4000FFF7DAFA01210348FFF748FA06B010BD82
:103C5000000801400038014030B595B0054613AB6F
:103C600012AA09A9284600F03BFA044614B12046DE
:103C700015B030BD0020149026E0224909689DF857
:103C8000502001EBC20113AB11AA486801A900F052
:103C900027FA04460CB12046EAE709A901A800F07A
:103CA000B7FC60B99DF844009DF84810884201DDDA
:103CB0000220DDE79DF85000124988750AE09DF862
:103CC0005000401CC0B214900E48007D9DF850106A
:103CD0008842D2DC00BF0B48007D9DF8501088421E
:103CE00001D10420C4E714A9284600F0D9FA0446FB
:103CF0000CB12046BCE79DF85000024948750020F1
:103D0000B6E70000D80300202DE9F0419AB0002664
:103D10009C48847D007DA04202DC1AB0BDE8F081A1
:103D20009849096801EBC40106AB07AA486808A9CD
:103D300000F0D6F908A994A0FCF7F2FA002544E0B7
:103D40009048008B0121A9400840D8B1222190A0C1
:103D5000FCF7E6FA284600F029FB8A492431471887
:103D600039468CA0FCF7DCFA222189A0FCF7D8FAAE
:103D7000284600F01BFB83492431084410A941F870
:103D8000250018E0284600F011FB7E492431085830
:103D900010A941F825007B48C07D30B910A850F823
:103DA00025107DA0FCF7BCFA05E010A850F82510FE
:103DB0007AA0FCF7B5FA9DF81C00401EA84202D07C
:103DC00078A0FCF7ADFA681CC5B29DF81C008542CE
:103DD000B6DB75A0FCF7A4FA00F038FB6948407D1B
:103DE0000B280DD2DFE800F0060D151E27323F4EDE
:103DF0005F7287006349096851F8340080470646BE
:103E000090E0604A126852F83410109888470646CD
:103E100088E05C4B1B6853F83420DDE910019047C3
:103E200006467FE0574F3F6857F8343010A807C860
:103E30009847064676E0DFF84CC1DCF800C05CF835
:103E4000347010A80FC8B84706466BE01498DFF826
:103E500034C10090DCF800C05CF8347010A80FC8C2
:103E6000B84706465EE0DDE91401DFF818C1CDE988
:103E70000001DCF800C05CF8347010A80FC8B84727
:103E800006464FE0DDE914121698DFF8F8C0CDE9D8
:103E900000120290DCF800C05CF8347010A80FC863
:103EA000B84706463EE0DDE91423DDE91610DFF8E9
:103EB000D4C0CDE90023CDE90210DCF800C05CF8E5
:103EC000347010A80FC8B84706462BE0DDE916325B
:103ED00018991598CDE90232049101901498DFF8F1
:103EE000A4C00090DCF800C05CF8347010A80FC8C3
:103EF000B847064616E0DDE91623DDE91810CDE9DE
:103F00000223CDE90410DDE91401DFF878C0CDE922
:103F10000001DCF800C05CF8347010A80FC8B84786
:103F2000064600BF00BF00F051FA9DF818000128B6
:103F30000CD11448C07D20B931461CA0FCF7F0F923
:103F400007E031461BA0FCF7EBF902E018A0FCF7F4
:103F5000E7F90C4890F8EC0088B10A48D0F8F00076
:103F60000A21B0FBF1F201FB12070648D0F8F0007D
:103F7000B0FBF1F83A46414611A0FCF7D1F900BF79
:103F8000CBE60000D80300200D0A257328000000AE
:103F90002563000025730000256C750030582558F6
:103FA000000000002C000000290000003D256C7579
:103FB0003B0D0A003D305825583B0D0A000000001B
:103FC00046756E6374696F6E2052756E2054696D0C
:103FD000653A25642E2531646D730D0A00000000DA
:103FE000F0B503461546002000220026002455E0C7
:103FF0001F782C2F01D104B901221F78292F01D05D
:104000001F780FB904B94AE0002E34D11F78302F41
:1040100002DB1F78392F11DD1F78612F02DB1F783B
:10402000662F0BDD1F78412F02DB1F78462F05DD41
:104030001F78582F02D01F78782F0CD102B12EE0B4
:104040001F78612F03DB1F78203F0F7001E01F787E
:104050000F70491C1FE01F78222F04D102B11EE00F
:104060000126012417E01F78202F14D01F782C2F51
:1040700011D0FF2613E01F78222F00D1002402B1B7
:104080000DE044B11F785C2F02D15B1C471CF8B2D5
:104090001F780F70491C471CF8B25B1CA8E700BFD3
:1040A00000270F702E70F0BD10B504460020107070
:1040B0000BE020780870641C491C1078401C1070BC
:1040C0001078984201DB012010BD2078202802D012
:1040D00020780028EDD10020087000BFF4E7000030
:1040E0002DE9FF4F85B080468946002700200490C7
:1040F0000390012002904FF0000B002544461DE084
:104100002078202816D005F07F00052812DA0DB996
:1041100045F0800505F07F00042803D120782A2887
:1041200000D00EE0207805F07F010DF80100681C3A
:10413000C5B202E0852D00D103E0641C2078002880
:10414000DED100BF8DB1002005F07F010DF8010028
:1041500051A1684600F05CFA18B900210898017076
:1041600002E001210898017000254FF0000A444642
:1041700014E0641C0AF1010000F0FF0A20782028F6
:1041800002D020782A2809D1204600F0D1F906462D
:10419000282E03D02A2E01D0CDF810A02078282870
:1041A00002D020780028E4D14446049810B1049845
:1041B000401C04444FF0000A002654E0207810B957
:1041C0004FF0010A50E02078282803D116B9781C56
:1041D000C7B213E02078292808D13EB917B1781E5C
:1041E000C7B201E04FF0010A47B93DE0207822282C
:1041F00004D10EB9012000E00020064647B920781E
:1042000020282FD0207889F8000009F1010929E041
:1042100020782C2804D101200290681CC5B214E03B
:104220002078202811D0207828280ED04DB9BBF155
:10423000050F06DA20780DF80B000BF1010000F0F5
:10424000FF0B0298401CC0B20290012F0AD10298C5
:10425000022807D10298401CC0B202900398401C6B
:10426000C0B20390641CA9E700BF0398012809D1DC
:1042700000200DF80B0008A1684600F0C9F908B944
:1042800000200390079903980870002089F8000027
:10429000504609B0BDE8F08F766F696400000000F9
:1042A0002DE9F043B5B005460F460024002604E092
:1042B00000213D488155701CC6B20A2EF8DB06E08D
:1042C0006D1C287818B9012035B0BDE8F083287836
:1042D0002828F5D16D1C61E034AA69462846FFF70D
:1042E0007FFE064635449DF8D00020B1012827D036
:1042F000FF284CD149E09DF8000000B333A968467F
:1043000000F021F906460EB10220DDE7204600F05C
:104310004DF825490A31339A0A50A1F12400008B47
:104320000121A140884320491A39088304211E48ED
:104330000155601CC4B20A2C01DD0320C4E726E04D
:10434000684600F081F9401C00F0FF08204600F0AC
:104350002DF815490A3100EB01094946684600F07D
:1043600068F911481A38018B0120A040014388B236
:104370000D491A3908830C4800F80480601CC4B247
:104380000A2C01DD03209FE701E002209CE700BF2B
:104390002878292801D0287800B900E09CE700BFE0
:1043A0003C70002090E70000F2030020024600204D
:1043B000002105E0044B5B5C0344D8B24B1CD9B22E
:1043C0009142F7DB70470000F20300204FF080407D
:1043D000008A00F0010040B10B48D0F8F0004FF621
:1043E000FF7108440849C1F8F0000748D0F8F00010
:1043F0004FF08041898C08440349C1F8F000084619
:10440000D0F8F00070470000D803002010B5044633
:1044100004EBC40000EB04100122C2EB800081B267
:104420004FF47A70FEF710FD01200149C87510BDE8
:10443000D803002010B50246012000E050430B00D5
:10444000A1F10104E1B2F9D110BD00004FF08040AC
:10445000008A20F001004FF0804108824FF6FF7083
:104460008885002088840249C1F8F0007047000068
:10447000D803002070B51D48008800F400400028D3
:1044800033D01A48057800201949485519488168E1
:104490001748884704461CB91649C868804721E078
:1044A000134800F0DDF80546012D00D02C46CCB1B4
:1044B000012C06D0022C08D0032C0AD0042C10D1D9
:1044C0000BE00DA0FBF72CFF0BE00EA0FBF728FF85
:1044D00007E00FA0FBF724FF03E010A0FBF720FF8D
:1044E00000BF00BF00200149088070BD1C000020F3
:1044F00068050020D8030020BAAFCAFDB4EDCEF3A2
:10450000210D0A00B2CECAFDB4EDCEF3210D0A0092
:10451000B2CECAFDCCABB6E0210D0A00CEB4D5D2E6
:10452000B5BDC6A5C5E4B5C4BAAFCAFD210D0A0024
:104530000146491C00E0491C0878202801D10029C7
:10454000F9D1087870472DE9F04307460E4600255B
:104550004FF00A083C46002030601FE020783928E0
:1045600002DC207830280ADA2078462802DC20781D
:10457000412804DA2078582809D1012D07D1207864
:10458000412801DB4FF01008681CC5B205E0207817
:1045900000B904E00120BDE8F083641CDEE700BF41
:1045A0003C46B8F1100F0FD1032D01DA0220F2E7DB
:1045B0002078302806D16078582803D1A41CA81E82
:1045C000C5B204E00320E6E70DB90420E3E71BE0F1
:1045D0000DB1681EC5B22078392806DC2078302855
:1045E00003DB2078A0F1300902E02078A0F1370940
:1045F00029464046FFF71EFF316809FB0010306076
:10460000641C207800B900E0E2E700BF0020C2E7A8
:1046100002460AE010780B78984201D001207047DA
:10462000107800B902E0521C491CF3E700BF0020DB
:10463000F5E706E002780A70027802B902E0401C51
:10464000491CF7E700BF70470146002005E00A78E3
:1046500002B903E0421CD0B2491CF8E700BF704722
:1046600010B58CB004461E230BAA03A92046FFF701
:104670001BFD0090009810B101200CB010BD9DF8FA
:104680002C00044400200B900EE040489DF82C20A4
:1046900050F8221003A8FFF7BBFF00B908E09DF80F
:1046A0002C00401CC0B20B909DF82C000728ECD3C6
:1046B00000BF9DF82C00072863D2DFE800F0040556
:1046C0003C5E6564630000BF31A0FBF729FE31A0AA
:1046D000FBF726FE3FA0FBF723FE4EA0FBF720FED4
:1046E0005CA0FBF71DFE6BA0FBF71AFE79A0FBF7A1
:1046F00017FE86A0FBF714FE8BA0FBF711FE90A01F
:10470000FBF70EFE94A0FBF70BFE99A0FBF708FE4B
:104710009EA0FBF705FEA4A0FBF702FEB0A0FBF7EE
:10472000FFFDBDA0FBF7FCFDC8A0FBF7F9FDD4A081
:10473000FBF7F6FD9AE216A0FBF7F2FDE0A0FBF70F
:10474000EFFD00200B900EE0ED4800689DF82C2056
:1047500000EBC2004168EBA0FBF7E2FD9DF82C00E6
:10476000401CC0B20B90E648007D9DF82C1088429A
:10477000EADC07A0FBF7D4FD78E205A0FBF7D0FD4B
:10478000C4E171E245E219E2ECE100009C03002083
:104790000D0A00002D2D2D2D2D2D2D2D2D2D2D2DE6
:1047A0002D2D2D2D2D2D2D2D2D2D2D2D55534D41B7
:1047B00052542056332E312D2D2D2D2D2D2D2D2DB6
:1047C0002D2D2D2D2D2D2D2D2D2D2D2D2D2D2D2026
:1047D0000D0A00002020202055534D415254CAC7D5
:1047E000D3C9414C49454E54454BBFAAB7A2B5C4A5
:1047F000D2BBB8F6C1E9C7C9B5C4B4AEBFDAB5F724
:10480000CAD4BBA5BDBBD7E9BCFE2CCDA8B9FD2041
:104810000D0A0000CBFC2CC4E3BFC9D2D4CDA8B98B
:10482000FDB4AEBFDAD6FACAD6B5F7D3C3B3CCD08F
:10483000F2C0EFC3E6B5C4C8CEBACEBAAFCAFD2C3B
:10484000B2A2D6B4D0D02ED2F2B4CB2CC4E3BFC91E
:104850000D0A0000D2D4CBE6D2E2B8FCB8C4BAAF9D
:10486000CAFDB5C4CAE4C8EBB2CECAFD28D6A7B308
:10487000D6CAFDD7D62831302F3136BDF8D6C62955
:10488000A1A2D7D6B7FBB4AEA1A2BAAFCAFDC8EBFE
:104890000D0A0000BFDAB5D8D6B7B5C8D7F7CEAA8B
:1048A000B2CECAFD292CB5A5B8F6BAAFCAFDD7EE6F
:1048B000B6E0D6A7B3D63130B8F6CAE4C8EBB2CE6C
:1048C000CAFD2CB2A2D6A7B3D6BAAFCAFDB7B520DF
:1048D0000D0A0000BBD8D6B5CFD4CABE2ED0C2D4E4
:1048E000F6B2CECAFDCFD4CABEBDF8D6C6C9E8D688
:1048F000C3B9A6C4DC2CD0C2D4F6BDF8D6C6D7AA9C
:10490000BBBBB9A6C4DC2E0D0A000000BCBCCAF5B6
:10491000D6A7B3D63A7777772E6F70656E656476D3
:104920002E636F6D0D0A000055534D415254D3D084
:1049300037B8F6CFB5CDB3C3FCC1EE3A0D0A0000CF
:104940003F3A202020202020BBF1C8A1B0EFD6FAAA
:10495000D0C5CFA20D0A000068656C703A202020F7
:10496000BBF1C8A1B0EFD6FAD0C5CFA20D0A0000A6
:104970006C6973743A202020BFC9D3C3B5C4BAAFE1
:10498000CAFDC1D0B1ED0D0A0A00000069643A20E9
:1049900020202020BFC9D3C3BAAFCAFDB5C4494443
:1049A000C1D0B1ED0D0A0A006865783A20202020B8
:1049B000B2CECAFD3136BDF8D6C6CFD4CABE2CBAE7
:1049C000F3B8FABFD5B8F12BCAFDD7D6BCB4D6B46C
:1049D000D0D0BDF8D6C6D7AABBBB0D0A0A000000CE
:1049E0006465633A20202020B2CECAFD3130BDF884
:1049F000D6C6CFD4CABE2CBAF3B8FABFD5B8F12BFD
:104A0000CAFDD7D6BCB4D6B4D0D0BDF8D6C6D7AAC6
:104A1000BBBB0D0A0A00000072756E74696D653AC1
:104A2000312CBFAAC6F4BAAFCAFDD4CBD0D0BCC615
:104A3000CAB13B302CB9D8B1D5BAAFCAFDD4CBD0AE
:104A4000D0BCC6CAB13B0D0A0A000000C7EBB0B427
:104A5000D5D5B3CCD0F2B1E0D0B4B8F1CABDCAE478
:104A6000C8EBBAAFCAFDC3FBBCB0B2CECAFDB2A29E
:104A7000D2D4BBD8B3B5BCFCBDE1CAF82E0D0A0038
:104A80002D2D2D2D2D2D2D2D2D2D2D2D2D2D2D2D56
:104A90002D2D2D2D2D2D2D2D2D2D414C49454E5497
:104AA000454B2D2D2D2D2D2D2D2D2D2D2D2D2D2D00
:104AB0002D2D2D2D2D2D2D2D2D2D2D200D0A0000D0
:104AC0002D2D2D2D2D2D2D2D2D2D2D2D2D2D2D2D16
:104AD0002D2D2D2D2D2D2D2D2DBAAFCAFDC7E5B5B0
:104AE000A52D2D2D2D2D2D2D2D2D2D2D2D2D2D2D7E
:104AF0002D2D2D2D2D2D2D2D2D2D2D2D200D0A0063
:104B0000D803002025730D0A0000000059A0FBF710
:104B100007FC00200B901AE0664909689DF82C20DC
:104B200001EBC20101AB02AA486803A9FFF7D8FA5A
:104B3000604800689DF82C1050F8312003A95EA051
:104B4000FBF7EEFB9DF82C00401CC0B20B905948BF
:104B5000007D9DF82C108842DEDCAFF2CC30FBF7F4
:104B6000DFFB83E0AFF2D830FBF7DAFB0BAA03A937
:104B70002046FFF735FA9DF82C00C8B9694603A80E
:104B8000FFF7E1FC0B909DF82C0020B94FA0009995
:104B9000FBF7C6FB0EE09DF82C00042801D0022094
:104BA0006BE54DA0FBF7BCFB01204249C87501E055
:104BB000022062E547A0FBF7B3FB57E045A0FBF7F7
:104BC000AFFB0BAA03A92046FFF70AFA9DF82C00B9
:104BD000C8B9694603A8FFF7B6FC0B909DF82C00F6
:104BE00020B942A00099FBF79BFB0EE09DF82C003A
:104BF000042801D0022040E53FA0FBF791FB0020F4
:104C00002C49C87501E0022037E532A0FBF788FB8C
:104C10002CE030A0FBF784FB0BAA03A92046FFF78A
:104C2000DFF99DF82C00C8B9694603A8FFF78BFC93
:104C30000B909DF82C0078B91E49009881F8EC0083
:104C4000084690F8EC0018B130A0FBF769FB07E0CC
:104C500035A0FBF765FB03E002200EE502200CE522
:104C60001CA0FBF75DFB01E0012006E500BF002072
:104C700003E500002D2D2D2D2D2D2D2D2D2D2D2D30
:104C80002D2D2D2D2D2D2D2D2D2D2D2D2DBAAFCAA8
:104C9000FD204944202D2D2D2D2D2D2D2D2D2D2D5B
:104CA0002D2D2D2D2D2D2D2D2D2D2D2D2D2D2D2D34
:104CB000200D0A00D8030020257320696420697341
:104CC0003A0D0A3058253038580D0A004845583AF0
:104CD000305825580D0A00003136BDF8D6C6B2CE80
:104CE000CAFDCFD4CABE210D0A0000004445433A94
:104CF000256C750D0A0000003130BDF8D6C6B2CE65
:104D0000CAFDCFD4CABE210D0A00000052756E2024
:104D100054696D652043616C63756C6174696F6E75
:104D2000204F4E0D0A00000052756E2054696D65CB
:104D30002043616C63756C6174696F6E204F4646E9
:104D40000D0A00000160704710B500290AD00878EC
:104D5000002807D005487844FBF7B8FC002801D0AC
:104D6000002010BD0248784410BD00004A09000030
:104D70004209000010B500290AD00878002807D0A1
:104D800005487844FBF7A2FC002801D0002010BDA4
:104D90000248784410BD00003A09000032090000C2
:104DA000FBF78CBFFCF7BEB800000000000000005D
:104DB00000000000000000000000000808080808CB
:104DC000080800001818000000486C2412000000B9
:104DD00000000000000000000000002424247F12D6
:104DE00012127F12121200000000081C2A2A0A0C5C
:104DF0001828282A2A1C0808000000222515151545
:104E00002A585454542200000000000C1212120AB6
:104E100076252911916E00000006060403000000AB
:104E200000000000000000000040201010080808EA
:104E30000808081010204000000204080810101094
:104E400010101008080402000000000008086B1C85
:104E50001C6B08080000000000000000080808089B
:104E60007F080808080000000000000000000000A3
:104E7000000000000606040300000000000000001F
:104E8000FE00000000000000000000000000000024
:104E900000000000060600000000804040202010B6
:104EA00010080804040202000000001824424242D4
:104EB0004242424224180000000000080E08080880
:104EC00008080808083E00000000003C424242205A
:104ED00020100804427E00000000003C42422018DE
:104EE00020404042221C00000000002030282424E2
:104EF00022227E20207800000000007E0202021A9A
:104F000026404042221C0000000000382402021A01
:104F100026424242241800000000007E2222101087
:104F200008080808080800000000003C424242242B
:104F300018244242423C0000000000182442424231
:104F400064584040241C00000000000000001818B5
:104F50000000000018180000000000000000000819
:104F600000000000000808040000004020100804B1
:104F700002040810204000000000000000007F0034
:104F800000007F0000000000000000020408102064
:104F900040201008040200000000003C424246404D
:104FA00020101000181800000000001C225A55554F
:104FB00055552D42221C000000000008081814144A
:104FC000243C224242E700000000001F2222221E51
:104FD00022424242221F00000000007C42420101A6
:104FE00001010142221C00000000001F2242424237
:104FF00042424242221F00000000003F4212121EA5
:1050000012120242423F00000000003F4212121EF4
:1050100012120202020700000000003C22220101DD
:1050200001712122221C0000000000E7424242429E
:105030007E42424242E700000000003E08080808A5
:1050400008080808083E00000000007C101010103E
:10505000101010101010110F0000007722120A0E0D
:105060000A12122222770000000000070202020248
:1050700002020202427F0000000000773636363618
:105080002A2A2A2A2A6B0000000000E346464A4AE0
:1050900052525262624700000000001C224141410E
:1050A00041414141221C00000000003F4242424277
:1050B0003E020202020700000000001C22414141A2
:1050C00041414D53321C60000000003F4242423ECD
:1050D0001212222242C700000000007C4242020459
:1050E00018204042423E00000000007F49080808A6
:1050F00008080808081C0000000000E7424242427D
:1051000042424242423C0000000000E74242222468
:1051100024141418080800000000006B494949498C
:105120005555362222220000000000E742242418B0
:105130001818242442E700000000007722221414EB
:1051400008080808081C00000000007E212010103C
:1051500008040442423F00000078080808080808D4
:10516000080808080808780000000202040408087B
:105170000810102020204040001E101010101010A9
:105180001010101010101E00003844000000000025
:10519000000000000000000000000000000000000F
:1051A00000000000000000FF0006080000000000F2
:1051B0000000000000000000000000000000003CB3
:1051C0004278444242FC0000000000030202021A3E
:1051D00026424242261A000000000000000000386B
:1051E0004402020244380000000000604040407861
:1051F0004442424264D80000000000000000003C2D
:10520000427E0202423C0000000000F08808087E56
:1052100008080808083E0000000000000000007CAC
:1052200022221C023C42423C000000030202023ADD
:105230004642424242E700000000000C0C00000E13
:1052400008080808083E0000000000303000003860
:10525000202020202020221E0000000302020272D3
:10526000120A1612227700000000000E0808080833
:1052700008080808083E0000000000000000007F49
:105280009292929292B70000000000000000003B52
:105290004642424242E70000000000000000003C9D
:1052A00042424242423C0000000000000000001B5D
:1052B00026424242221E0207000000000000007841
:1052C00044424242447840E0000000000000007781
:1052D0004C040404041F0000000000000000007CD7
:1052E00042023C40423E0000000000000008083E30
:1052F00008080808083000000000000000000063F3
:105300004242424262DC000000000000000000E770
:10531000422424140808000000000000000000EBF4
:105320004949555522220000000000000000007687
:1053300024181818246E000000000000000000E788
:105340004224241418080807000000000000007E12
:1053500022100808447E000000C0202020202010D9
:10536000202020202020C00010101010101010103D
:10537000101010101010101000060808080808106F
:1053800008080808080806000C32C20000000000E7
:1053900000000000000000001F000000E007000007
:1053A00000F80000FF0700001FF80000E0FF000009
:1053B00000000000FFFF0000303132333435363753
:1053C0003839414243444546403058003031323349
:1053D0003435363738396162636465664030780049
:1053E00004000008000000000000000200010000AE
:1053F00010000000000000000000000030313233D7
:1054000034353637383961626364656678700030E8
:1054100031323334353637383941424344454658C2
:105420005000000002400000000000A0000000004A
:1054300005400000000000C8000000000C40000013
:105440000000409C00000000194000000020BCBE8D
:105450000000000034400000BFC91B8E00000004A3
:10546000B5400000504BCFD06607E2CF01000000EE
:105470006C4100003E8251AADFEEA734010000001B
:10548000D9420000DCB5A0E23A301F97FFFFFFFFD2
:10549000B4450000FD25A0C8E9A3C14FFFFFFFFFF1
:1054A000FF3F00000000008000000000FF3F000000
:1054B00000000080000000003F0000006465630001
:1054C0006964000072756E74696D650068656C7062
:1054D000000000006C6973740000000068657800CB
:1054E000766F69642061746B5F726D30345F7175C3
:1054F00069745F7472616E7328766F696429000045
:1055000075382061746B5F383236365F73656E6450
:105510005F636D64287538202A636D642C753820AC
:105520002A61636B2C753136207761697474696DFB
:1055300065290000766F69642077726974655F6120
:105540006464722875333220616464722C7533325E
:105550002076616C29000000753332207265616429
:105560005F6164647228753332206164647229005B
:10557000415026535441C4A3CABD2000535441C4D2
:10558000A3CABD20000000004150C4A3CABD200032
:10559000230000002E000000383000003000000022
:1055A0003100000032000000330000003400000031
:1055B0003500000041544B2D4553503832363600EB
:1055C0003830383600000000360000003700000098
:1055D00031323334353637380000000038000000EF
:1055E00039000000575041325F50534B000000001B
:1055F0005750415F574150325F50534B00000000FD
:105600005750415F50534B0044454C004F50454E5E
:105610000000000054435000574550007777772E24
:105620006265696A696E672D74696D652E6F726750
:105630000000000031333739323438366368656E24
:10564000000000006E6F766120352050726F000000
:10565000777061777061325F6165730020554450E7
:1056600020C4A3CABD000000544350BFCDBBA7B6A1
:10567000CB000000544350B7FECEF1C6F700000047
:10568000CC57000800000020680500006C010008ED
:10569000D05A00086805002048130000C80100081F
:1056A0001C00000043000000F8FFFFFF0C0000009A
:1056B0000E0000000F0000002E000000100100008E
:1056C00043000000F8FFFFFF0040404040404040E2
:1056D00040404141414141404040404040404040C5
:1056E0004040404040404040400502020202020269
:1056F00002020202020202020220202020202020B8
:1057000020202002020202020202909090909090CB
:105710001010101010101010101010101010101089
:1057200010101010020202020202888888888888FD
:1057300008080808080808080808080808080808E9
:1057400008080808020202024000000000000000F1
:105750000000000000000000000000000000000049
:105760000000000000000000000000000000000039
:105770000000000000000000000000000000000029
:105780000000000000000000000000000000000019
:105790000000000000000000000000000000000009
:1057A00000000000000000000000000000000000F9
:1057B00000000000000000000000000000000000E9
:1057C0000000000000000000000000001184A24A58
:1057D00004E00901020304060708092916691AE50D
:1057E00002040608223013076016F00FC0803F1431
:1057F000C0780C1280220C1A04044A02041A040411
:10580000181018010C1838010C3C10F9FF03100196
:105810002C245A2404126612C012461A4004126044
:1058200012C3127C12832E70808101600412C01496
:1058300003306014073030140E3018147C20061228
:10584000080214011AC01616F80380F10F23800F06
:105850001A800E1C8001035C1A075CEA03041F0C0B
:10586000E0FFFF1F400C215904230C23231C431489
:105870000683011C0303033C1A07281A0E241B0C81
:1058800030041A08041B04F8281AC004295DC12A30
:1058900080443207140608601B041C5C133F601A26
:1058A00002D01A06041F020140FEFF03081A031467
:1058B00029045A1B20691010190360FCFF036002C1
:1058C0000A04601C0A0C203812062030120130A095
:1058D000E314306062141018C21012180E8203888C
:1058E00003020F04F1031E0480030802D9802AC0BA
:1058F0000419143908890419681B0360C5091204C6
:1059000009161C59181A010429441A08045A1004CB
:105910001A18641238041780FF1F2603C0FFFF0700
:105920001A8004293D326032181A0C135A030419E4
:10593000A41C800108045E1CFCFFFF3F1009280422
:105940001AFC0432E08240281BE27F2C401825819B
:1059500008461204021022E87F0407870A447234C2
:1059600022040202180C0820882088248824A824F5
:10597000FF064902100BB8248F2442244020202027
:105980001220181110023CEC03080201020622F456
:105990007F10020834100D07050405840844102404
:1059A0007014201204130FF812081A8802168420AB
:1059B000FE7F801280180C9004900888108430A21A
:1059C00020400E11180A21FC7F0401F41F04110865
:1059D000101111F41F1401242344152209127149D6
:1059E0002180180C200870081F09100A10087F0673
:1059F000380E38285878940F14081208110810022D
:105A00001A08722E0812C83F3F08180C02C81F5807
:105A1000108C088B0808050E860D8A70642013B858
:105A2000541B08CC041AD4041AC0041ADC041ABC8F
:105A3000041AC40413733B140858551408454D2B1D
:105A40000834081A34B1190813D5331B08E02013A1
:105A5000B80314200D441408593C1408093D1B08D0
:105A6000750C220402DC0113C055140844565B086F
:105A700034041AB4101A50081AD0081A14081A1C40
:105A8000041A980C811A7C0C1A88041A70041A746F
:105A90001C1A68041A5C041A0C041A18041119045C
:105AA0001AE41C1AF0041AA0041AA4041AA8041A6E
:105AB000AC041AB0041AC8041ACC041ADC041AE0A4
:105AC000041A94041A9C041A90042A0840B1000095
:0400000508000131BD
:00000001FF
